:020000040800F2
:1000000000800120B15700087D0D00087F0D000819
:10001000810D0008830D0008850D00080000000018
:100020000000000000000000000000007150000807
:10003000870D0008000000001151000875510008EC
:10004000015800080158000801580008015800082C
:10005000015800080158000801580008015800081C
:10006000015800080158000801580008015800080C
:1000700001580008015800080158000801580008FC
:1000800001580008015800080158000801580008EC
:10009000015800080158000801580008890D00089F
:1000A00001580008015800080158000801580008CC
:1000B000A90D00080158000801580008015800085F
:1000C00001580008015800080158000801580008AC
:1000D000015800080158000801580008015800089C
:1000E000B90D00080158000801580008015800081F
:1000F000015800080158000801580008015800087C
:10010000015800080158000801580008015800086B
:10011000015800080158000801580008015800085B
:10012000015800080158000801580008015800084B
:10013000015800080158000801580008015800083B
:10014000015800080158000801580008015800082B
:10015000015800080158000801580008015800081B
:10016000015800080158000801580008015800080B
:1001700001580008015800080000000000000000BD
:080180000158000801580008B5
:1001900010B5054C237833B9044B13B10448AFF3C1
:1001A00000800123237010BD180000200000000013
:1001B000745800080C4B43B10C480D4910B5AFF30F
:1001C00000800C48036823B910BD0A48036833B99E
:1001D0007047094B002BF7D0BDE810401847064B7D
:1001E000002BF5D0184700BF00000000745800082D
:1001F0001C000020180000200000000053B94AB97C
:10020000002908BF00281CBF4FF0FF314FF0FF301E
:1002100000F07AB9ADF1080C6DE904CE00F006F8F3
:10022000DDF804E0DDE9022304B070472DE9F04772
:100230008C460D460446089E002B51D18A42174633
:100240006DD9B2FA82FEBEF1000F0BD0CEF1200CB8
:1002500001FA0EF520FA0CFC02FA0EF74CEA050C36
:1002600000FA0EF44FEA174A250CBCFBFAF81FFA05
:1002700087F90AFB18CC45EA0C4508FB09F3AB42A9
:100280000AD9ED1908F1FF3280F02381AB4240F228
:100290002081A8F102083D44ED1AA4B2B5FBFAF0A2
:1002A0000AFB105544EA054400FB09F9A14509D9A8
:1002B000E41900F1FF3380F00A81A14540F2078183
:1002C00002383C44A4EB090440EA08400021002E17
:1002D00061D024FA0EF4002334607360BDE8F08727
:1002E0008B4207D9002E54D0002186E82100084611
:1002F000BDE8F087B3FA83F1002940F08E80AB426D
:1003000002D3824200F2FA80841A65EB03050120D1
:10031000AC46002E3FD086E81010BDE8F08712B939
:100320000127B7FBF2F7B7FA87FEBEF1000F34D111
:10033000EB1B3A0C1FFA87FC0121B3FBF2F8250CEA
:1003400002FB183345EA03450CFB08F3AB4207D91F
:10035000ED1908F1FF3002D2AB4200F2D1808046A5
:10036000ED1AA3B2B5FBF2F002FB105543EA0544C7
:100370000CFB00FCA44507D9E41900F1FF3302D2BD
:10038000A44500F2B8801846A4EB0C0440EA0840EB
:100390009DE731463046BDE8F087CEF1200405FAEE
:1003A0000EF307FA0EF720FA04F83A0C25FA04F4D3
:1003B00048EA0308B4FBF2F14FEA184502FB114486
:1003C0001FFA87FC45EA044501FB0CF3AB4200FA37
:1003D0000EF409D9ED1901F1FF3080F08A80AB42AB
:1003E00040F2878002393D44EB1A1FFA88F5B3FBCF
:1003F000F2F002FB103345EA034500FB0CF3AB427D
:1004000007D9ED1900F1FF386FD2AB426DD9023830
:100410003D44EB1A40EA01418FE7C1F1200722FA7F
:1004200007F88B4005FA01F448EA030320FA07FEB7
:100430004FEA134CFD404EEA040EB5FBFCF94FEABF
:100440001E440CFB19551FFA83F844EA054509FBC5
:1004500008F4AC4202FA01F200FA01FA08D9ED18E8
:1004600009F1FF3043D2AC4241D9A9F102091D4440
:100470002D1B1FFA8EFEB5FBFCF00CFB10554EEA4F
:10048000054400FB08F8A04507D9E41800F1FF3542
:1004900029D2A04527D902381C4440EA0940A4EBE0
:1004A0000804A0FB02894C45C6464D4615D312D020
:1004B00056B1BAEB0E0364EB050404FA07F7CB4020
:1004C0001F43CC40376074600021BDE8F0871846B8
:1004D000F8E69046E0E6C245EAD2B8EB020E69EBD8
:1004E00003050138E4E72846D7E7404691E781460F
:1004F000BEE7014678E702383C4445E7084608E78E
:10050000A8F102083D442BE7704700BFF0B5B9B031
:100510004422002127A805F0A4F900242294239462
:1005200024942594269488222146684605F099F95A
:1005300002F09EF8214AD2F8903023F01803C2F856
:10054000903014232793012529952D952E9460230F
:100550002F9302263196329533952823349307271B
:1005600035973696379627A801F002F80F23229385
:1005700003232393249425942694042122A801F094
:10058000E3FA0F4B00931094159420944FF080637E
:100590001B930195029518230393049705960696DD
:1005A0004FF480130793684601F030FD4FF400705C
:1005B00002F06EF801F056FF39B0F0BD00100240B5
:1005C0008420010008B500F043FEFFF79FFF00F014
:1005D00019F800F0A1F900F021FA00F083FA00F018
:1005E0000DFB00F05DFB00F0F9F904F0F9FAFEE70D
:1005F00008B50368B3F1804F00D008BD00F038FEA5
:10060000FBE770472DE9F04F8DB000240794089464
:1006100009940A940B94B64BDA6C42F01002DA6437
:10062000DA6C02F010020192019ADA6C42F00402D4
:10063000DA64DA6C02F004020292029ADA6C42F096
:100640008002DA64DA6C02F080020392039ADA6CB8
:1006500042F00102DA64DA6C02F001020492049AB8
:10066000DA6C42F00202DA64DA6C02F002020592FD
:10067000059ADA6C42F00802DA64DB6C03F00803D6
:100680000693069B9B4D22464FF48A71284601F043
:10069000DBFF994F22460321384601F0D5FF224661
:1006A00048F204114FF0904001F0CEFFDFF858827D
:1006B00022464FF25401404601F0C6FF224641F265
:1006C00081018E4801F0C0FF01224FF400518B4898
:1006D00001F0BAFF22464FF41071894801F0B4FFCF
:1006E00001222021404601F0AFFF01221146284699
:1006F00001F0AAFF40F2151307930126089609940A
:100700000A9407A9284601F0B5FE6A230793DFF88B
:10071000FCA1CDF820A0099407A9284601F0AAFE63
:100720004FF400530793774B0893099407A9744833
:1007300001F0A0FE03250795089609940A9407A9DD
:10074000384601F097FE3F2307934FF00B0BCDF88F
:1007500020B0099407A96A4801F08CFE079502278A
:10076000089709940A954FF00809CDF82C9007A92D
:100770004FF0904001F07EFE48F204130793089674
:1007800009940A9407A94FF0904001F073FECDF848
:100790001C90089709940A940B9607A94FF0904073
:1007A00001F068FE10230793CDF820B0099407A943
:1007B0004FF0904001F05EFEE02307930897099404
:1007C0000A954FF00509CDF82C9007A94FF09040FD
:1007D00001F050FE0796CDF820A0099407A94046E5
:1007E00001F048FE0797CDF820B0099407A94046CC
:1007F00001F040FE4FF274030793089609940A949F
:1008000007A9404601F036FE4CF604430793CDF8A5
:1008100020A0099407A9394801F02CFE43F2810376
:100820000793089609940A9407A9344801F022FE18
:100830004FF410730793089609940A9407A9304857
:1008400001F018FE4FF4C0730793CDF820A009946F
:1008500007A92B4801F00EFE4FF4E05307930897C9
:1008600009940A9506230B9307A9254801F002FE77
:100870000797089709940A95CDF82C9007A91F4867
:1008800001F0F8FD78230793089709940A954FF033
:10089000070ACDF82CA007A9184801F0EBFD80232A
:1008A0000793089709940A95CDF82CA007A940460C
:1008B00001F0E0FD4FF4407307931223089309966B
:1008C0000A9504230B9307A9404601F0D3FD224665
:1008D0004946172001F03EFF172001F06DFF224628
:1008E0004946282001F036FF282001F065FF0FE07F
:1008F0000010024000100048001C0048000C004896
:1009000000080048000021100004004800001110F9
:100910000DB0BDE8F08F00BF08B50E480E4B036068
:1009200001220271002383600221C16003614361DF
:100930004FF480718161C36104210162436282626C
:10094000C362036300F000FC00B908BDFFF759FE65
:10095000FBE700BF381900202060014000B589B0D6
:10096000002303930493059306930793154B1B6889
:1009700013B109B05DF804FB03F1804303F50433C0
:100980001A6E42F080721A661A6E02F0807201923C
:10099000019ADA6C42F01002DA64DB6C03F01003A7
:1009A0000293029B4FF420730393022304930623C4
:1009B000079303A9044801F05DFD024A136801335F
:1009C0001360D6E7340000200010004808B500F09E
:1009D0002FFA012004F0A0F9FBE7000000B58BB06E
:1009E00004F0DCF82422002101A804F03AFF084BAF
:1009F0000193802306931823079301AA0021054839
:100A000004F014F9044B18600BB05DF804FB00BF50
:100A1000AC580008CD0900087019002008B512482C
:100A2000124B0360124B4360002383600122C260BB
:100A3000036143618361C361036200F03FFC50B90D
:100A40000021094800F098FC40B90021064800F058
:100A5000C1FC30B908BDFFF7D4FDF1E7FFF7D1FDC8
:100A6000F3E7FFF7CEFDF5E77419002000580040CA
:100A7000EC9C901010B588B0002303930493059369
:100A8000069307930268144B9A4201D008B010BD38
:100A9000124CE36C43F00203E364E36C03F00203E3
:100AA0000193019B4FF440630393122304930123AA
:100AB0000593032306930423079303A9084801F031
:100AC000D9FCA36D43F48003A365A36D03F48003F5
:100AD0000293029BDAE700BF00580040001002407A
:100AE0000004004808B50948094B0360FF23436030
:100AF000012282600023C36002614361836101F0CF
:100B000093FE00B908BDFFF77CFDFBE7C01900208C
:100B1000001000A000B589B000230393049305934F
:100B2000069307930268154B9A4202D009B05DF80C
:100B300004FB03F1204303F500331A6D42F4807285
:100B40001A651A6D02F480720192019ADA6C42F011
:100B50001002DA64DB6C03F010030293029B4FF483
:100B60007C43039302230493032306930A230793EE
:100B700003A9034801F07EFCD8E700BF001000A0E5
:100B80000010004800B589B0002201461C2001F089
:100B9000E1FD1C2001F010FE154B9A6D42F00102A0
:100BA0009A659B6D03F001030193019B02A903A8C1
:100BB00001F0A0F801F07AF80E4BA3FB00239B0C88
:100BC000013B0D484FF08042026040F2E732C260C4
:100BD000436000230361836001F0D4FF18B101205A
:100BE00009B05DF804FB044801F080FEF8E700BF9F
:100BF0000010024083DE1B43041A002008B50B4896
:100C00000B4B03604FF4E133436000238360C36008
:100C100003610C2242618361C3610362436202F09B
:100C2000A1FA00B908BDFFF7ECFCFBE7441A00206D
:100C30000048004000B589B0002303930493059356
:100C4000069307930268144B9A4202D009B05DF8EC
:100C500004FB03F5E4339A6D42F480229A659A6DA1
:100C600002F480220192019ADA6C42F00802DA64FE
:100C7000DB6C03F008030293029B4FF44073039371
:100C800002230493032306930723079303A903482E
:100C900001F0F0FBDAE700BF00480040000C00481C
:100CA00008B50B484FF0A0430360062343600223BE
:100CB000C36083610023C361036243628362036391
:100CC000C36202F081FA00B908BDFFF79AFCFBE7A6
:100CD000C41A002030B589B0002303930493059310
:100CE000069307930368B3F1A04F01D009B030BD5C
:100CF000214CE36C43F00103E364E36C03F0010374
:100D00000093009B08AD4FF4007345F8143D29464D
:100D10004FF0904001F0AEFB4FF4E05303930223F9
:100D2000049300230593032306930A23079329467C
:100D30004FF0904001F09EFBE36C43F48053E3647A
:100D4000E36C03F480530193019BA36D13F0805F68
:100D500002D001F0E5FCC9E7A36D43F08053A36521
:100D6000A36D03F080530293029B01F0D9FCA36DA5
:100D700023F08053A365B9E7001002407047FEE7F7
:100D8000FEE7FEE7FEE7704708B5202001F062FCB1
:100D9000402001F05FFC802001F05CFC4FF480708B
:100DA00001F058FC08BD000008B5024801F0B8FD8C
:100DB00008BD00BF041A002008B54FF4806001F0A0
:100DC00049FC4FF4006001F045FC4FF4005001F085
:100DD00041FC4FF4804001F03DFC4FF4004001F035
:100DE00039FC08BD00B583B00D4B1A6E42F001020C
:100DF0001A661A6E02F001020092009A9A6D42F091
:100E000080529A659B6D03F080530193019B0022F1
:100E10000F216FF0010001F09DFC03B05DF804FBB1
:100E20000010024008B5002000F046F908BD00009F
:100E300010B586B0244B93E803000390ADF8101072
:100E4000FFF7F0FF0021214804F0FEFA02A90DF19E
:100E50000B0004F086FC04F075FA642000F01AFA26
:100E60009DF80B30302B20D8002403AA0621002047
:100E700004F0FFFA00B100BF04F04EFB00B100BF68
:100E8000ACB90DF1120305AA0DF11601012004F011
:100E900094FB00B100BF0421012004F01AFB00B153
:100EA00000BF00F09DF806B010BD0124DDE70DF194
:100EB0001203019305AB00930DF1160307220021E5
:100EC000012004F047FBE4E79058000831100008C7
:100ED00010B590B004460021084604F084FA0020C2
:100EE00006900590049003900290019000900346B4
:100EF0004FF480524FF4006104F08EFB034610B1B2
:100F0000184610B010BD0A2004F00BFC0346002860
:100F1000F6D117238DF8283016238DF82930AA230F
:100F20008DF82A30FE238DF82B3000228DF82C20EE
:100F3000A3788DF82D30636819788DF82E105978C4
:100F40008DF82F1099788DF83010D9788DF83110F0
:100F500019798DF8321059798DF8331099798DF807
:100F60003410D9798DF83510197A8DF836105B7AEE
:100F70008DF83730A36819788DF8381059788DF8C6
:100F8000391099788DF83A10D9788DF83B10197985
:100F90008DF83C105B798DF83D308DF83E208DF852
:100FA0003F200E4B1A6809925B68ADF820301B0C8D
:100FB0008DF822300AA9182004F088FB0346002887
:100FC0009ED109A9042004F081FB0346002897D193
:100FD00008A9032004F07AFB034691E7985800081B
:100FE00000B589B005AB114A07CA03C31A800023B4
:100FF0008DF80C308DF80D308DF80E308DF80F30E7
:101000008DF8103001238DF811304FF47A73ADF85C
:101010000030EA238DF8023005AB019303AB029355
:101020006846FFF755FF09B05DF804FBA0580008BB
:101030007047000000B589B0114B9A6D42F4003240
:101040009A659A6D02F400320192019ADA6C42F0CC
:101050000102DA64DB6C03F001030293029B0C23B0
:101060000393022304930023059306930723079316
:1010700003A94FF0904001F0FDF909B05DF804FBC1
:101080000010024008B50B4A02604FF4E1324260A2
:1010900000228260C26002610C2141618261C261F2
:1010A0000262426202F05EF8034600B10123184674
:1010B00008BD00BF0044004001280FD810B50A4BFE
:1010C00053F82020094BC0011C181A502046FFF786
:1010D000B1FF2046FFF7D6FF18B910BD6FF0010031
:1010E00070476FF0030010BD00000020CC1E0020F0
:1010F000144B984218D02033984217D0203398428E
:1011000016D02033984215D02033984214D0203383
:10111000984213D02033984212D02033984201D005
:10112000002070470720704700207047012070475B
:101130000220704703207047042070470520704745
:101140000620704700600140002878D010B50446A2
:101150000068FFF7CDFF3B4B53F820300BB1012067
:1011600010BD2046FFF7FAFB374B1A6801321A60B0
:101170001B68012B45D02268136823F47143136068
:1011800021680A68236960690343A0690343134324
:101190000B602268136823F00F03136021680B684B
:1011A000E269206A024313430B602268936823F4C8
:1011B0005F03936020688368626AA16A013942EA2A
:1011C0000142134383602268536803F007035360AE
:1011D00021684A68E06A236BDB0043EA002313437B
:1011E0004B602268136843F080031360012384F886
:1011F00034302068FFF77CFF124B43F8204000207A
:1012000010BD124B1A6822F080421A601A68A16859
:101210000A431A601A6822F47F021A602379012BAC
:1012200005D00A4A136843F000431360A3E7074957
:101230000B68E268013A43EA02430B60F1E70120E0
:10124000704700BF380000205800002000600140B7
:1012500010B5032001F06CFA0020FFF793FC10B1E9
:101260000124204610BD0446FFF7BCFDF9E700004D
:10127000034A1368034909680B441360704700BFB1
:101280004C1F002004000020014B1868704700BF6D
:101290004C1F002038B50446FFF7F6FF0546B4F1B1
:1012A000FF3F02D0044B1B681C44FFF7EDFF401BBF
:1012B0008442FAD838BD00BF04000020002859D06D
:1012C00010B5044690F84130002B43D0242384F815
:1012D00041302268136823F00103136022686368B9
:1012E00023F0706313612268936823F400439360D2
:1012F000E368012B33D02268A36843F4044393606E
:10130000E368022B31D02268536843F0007343F442
:10131000004353602268D36823F40043D3602268FB
:10132000236961690B43A16943EA0123D360226801
:10133000E369216A0B4313602268136843F00103D9
:10134000136000206064202384F84130206384F817
:10135000420010BD80F84030FFF78CFBB6E72268F2
:10136000A36843F400439360CAE723684FF4006224
:101370005A60C8E70120704790F84130DBB2202B5B
:1013800001D00220704790F84030012B20D001237B
:1013900080F84030242380F841300268136823F03D
:1013A000010313600268136823F48053136002681A
:1013B0001368194311600268136843F00103136056
:1013C000202380F84130002380F8403018467047D1
:1013D0000220704790F84130DBB2202B01D0022070
:1013E000704790F84030012B1ED0012380F8403028
:1013F000242380F841300268136823F0010313604E
:101400000268136823F4706343EA012111600268E3
:10141000136843F001031360202380F84130002358
:1014200080F84030184670470220704730B583B0CE
:101430000546204B9B6D13F0805F0BD001F020F927
:10144000B0F5007F17D0802D1FD82DD0702D2DD056
:1014500000211BE0174CA36D43F08053A365A36DDF
:1014600003F080530193019B01F00AF9A36D23F06F
:101470008053A365E4E7802D03D9A02D03D9022171
:1014800004E0002102E0012100E003210A4A136880
:1014900023F007030B431360136803F0070399421B
:1014A00006D0012003B030BD0221EFE70121EDE7B6
:1014B0000020F7E70010024000200240284A93680D
:1014C000D26802F0030213F00C030AD00C2B06D0F2
:1014D000042B1FD0082B20D00020024610E0012A48
:1014E000F6D11F4A126812F0080F0CD11C4AD2F82C
:1014F0009420C2F303221B4951F8222043B100205B
:101500000C2B0DD07047164A1268C2F30312F2E793
:101510001046F5E714480022F2E714480022EFE7EE
:101520000F4BDB6803F00303022B15D0032B15D000
:101530000B49C868C0F30210431CC868C0F30620FA
:1015400000FB02F0B0FBF3F0CB68C3F3416301335F
:101550005B00B0FBF3F0D5E7034AE9E7034AE7E7AE
:1015600000100240D05800080024F40000127A0055
:10157000002800F0CD82F0B583B00446AB4B9D68E7
:1015800005F00C05DE6806F00306036813F0100F83
:101590007ED0E5B10C2D18D0A369002B00F0B580EA
:1015A000A24A136843F001031360FFF76DFE07467C
:1015B0009E4B1B6813F0020F40F09480FFF764FE0F
:1015C000C01B0228F4D90323B7E2012EE4D1974BC4
:1015D0001B6813F0020F03D0A369002B00F09B825D
:1015E000206A924B1B6813F0080F1DD08F4B1B68AD
:1015F00003F0F00383421ED2FFF718FF002840F0EB
:1016000093828A4B1A6842F008021A601A6822F024
:10161000F002216A0A431A605A6822F47F42E169A3
:1016200042EA01225A601EE0804BD3F894301B0935
:1016300003F0F003DEE77D4B1A6842F008021A60FF
:101640001A6822F0F002216A0A431A605A6822F4EA
:101650007F42E16942EA01225A60206AFFF7E6FE12
:10166000002840F06382FFF729FF704B9B68C3F3AB
:1016700003136F4AD35C03F01F03D8406D4B18600F
:101680006D4B1868FFF77EFA0346002840F055823C
:10169000236813F0010F57D0082D4CD00C2D48D0E3
:1016A0006368B3F5803F6ED0B3F5A02F71D05F4B68
:1016B0001A6822F480321A601A6822F480221A60B2
:1016C0006368002B72D0FFF7DFFD0746574B1B689E
:1016D00013F4003F38D1FFF7D7FDC01B6428F5D9BC
:1016E00003232AE2514B1A6842F008021A601A6872
:1016F00022F0F002216A0A431A605A6822F47F42FB
:10170000E16942EA01225A60C2E7484A136823F0BD
:1017100001031360FFF7B8FD0746444B1B6813F045
:10172000020FB5D0FFF7B0FDC01B0228F5D9032387
:1017300003E2032EB4D13D4B1B6813F4003F03D0EA
:101740006368002B00F0F481236813F0020F4FD080
:10175000042D3CD00C2D38D0E368002B77D0334AD1
:10176000136843F480731360FFF78EFD06462F4B1A
:101770001B6813F4806F61D1FFF786FD801B022880
:10178000F5D90323D9E1294A136843F48033136060
:1017900096E703F18043A3F53C331A6842F48022B4
:1017A0001A601A6842F480321A6089E7FFF76CFD0C
:1017B00007461E4B1B6813F4003FC5D0FFF764FDBE
:1017C000C01B6428F5D90323B7E1022EC4D1174BFF
:1017D0001B6813F4806F03D0E368002B00F0AA812C
:1017E000124A536823F0F853216943EA01635360B6
:1017F000236813F0080F55D06369002B3BD00B4AC8
:10180000D2F8943043F00103C2F89430FFF73CFD66
:101810000646064BD3F8943013F0020F42D1FFF77F
:1018200033FD801B0228F4D9032386E10010024017
:10183000B85800080C00002008000020B74A536880
:1018400023F0F853216943EA01635360D0E7B34AB8
:10185000136823F480731360FFF716FD0646AF4B41
:101860001B6813F4806FC3D0FFF70EFD801B0228A6
:10187000F5D9032361E1A94AD2F8943023F001039A
:10188000C2F89430FFF700FD0646A44BD3F894301D
:1018900013F0020F06D0FFF7F7FC801B0228F4D9E3
:1018A00003234AE1236813F0040F7AD09B4B9B6D0E
:1018B00013F0805F36D1994B9A6D42F080529A6551
:1018C0009B6D03F080530193019B0126944B1B6891
:1018D00013F4807F28D0A368012B39D0052B3FD08B
:1018E0008E4BD3F8902022F00102C3F89020D3F859
:1018F000902022F00402C3F89020A368002B3DD072
:10190000FFF7C2FC0746854BD3F8903013F0020F67
:1019100046D1FFF7B9FCC01B41F288339842F2D997
:1019200003230AE10026D1E77D4A136843F480735C
:101930001360FFF7A9FC0746794B1B6813F4807FFF
:10194000C9D1FFF7A1FCC01B0228F5D90323F4E09D
:10195000724AD2F8903043F00103C2F89030CCE7DD
:101960006E4BD3F8902042F00402C3F89020D3F8D5
:10197000902042F00102C3F89020BEE7FFF784FCFC
:101980000746664BD3F8903013F0020F08D0FFF7EC
:101990007BFCC01B41F288339842F2D90323CCE090
:1019A0005EBBA36A002B00F0C7800C2D76D0022B03
:1019B00029D05A4B1A6822F080721A601B6813F003
:1019C000205F04D1554AD36823F00303D360534A00
:1019D000D36823F0887323F48033D360FFF754FC7B
:1019E00004464E4B1B6813F0007F55D0FFF74CFCAC
:1019F000001B0228F5D903239FE0484A936D23F08A
:101A000080539365CDE7454A136823F080731360D4
:101A1000FFF73AFC0546414B1B6813F0007F06D0E8
:101A2000FFF732FC401B0228F5D9032385E03B4A2F
:101A3000D3683C491940E36A206B013843EA00133C
:101A4000606B43EA0023E06B4008013843EA4053EF
:101A5000206C4008013843EA4063A06B000943EA68
:101A600040430B43D360136843F080731360D36823
:101A700043F08073D360FFF707FC0446274B1B68D5
:101A800013F0007F06D1FFF7FFFB001B0228F5D9FA
:101A9000032352E0002350E000234EE0012B4FD0FF
:101AA0001E4BDB6803F00301E26A914201D001237F
:101AB00043E003F07002216B0139B2EB011F01D04A
:101AC00001233AE003F4FE42616BB2EB012F01D037
:101AD000012332E003F40031A26B073A18BF012260
:101AE000914201D0012328E003F4C001E26B5208C7
:101AF000013AB1EB425F01D001231EE003F0C06365
:101B0000226C5208013AB3EB426F1BD0012314E060
:101B100001231846704701230FE000BF0010024068
:101B2000007000408C809DF9012306E0012304E051
:101B3000012302E0012300E00023184603B0F0BDBA
:101B40000123FAE70023F8E7002800F09B8070B536
:101B500004464E4B1B6803F007038B420CD24B4AE2
:101B6000136823F007030B431360136803F00703A4
:101B7000994201D0012070BD0D46236813F0010F7A
:101B800039D06368032B09D0022B26D063BB404AAF
:101B9000126812F0020F06D1012070BD3C4A126893
:101BA00012F0007F70D03A498A6822F00302134392
:101BB0008B60FFF769FB0646354B9B6803F00C030F
:101BC0006268B3EB820F16D0FFF75EFB801B41F219
:101BD00088339842F0D9032070BD2D4A126812F460
:101BE000003FE0D1012070BD294A126812F4806FD5
:101BF000D9D1012070BD236813F0020F06D0244A0A
:101C0000936823F0F003A1680B4393601F4B1B689C
:101C100003F007039D420CD21C4A136823F007030C
:101C20002B431360136803F007039D4201D001208A
:101C300070BD236813F0040F06D0154A936823F48F
:101C4000E063E1680B439360236813F0080F07D04B
:101C50000F4A936823F46053216943EAC1039360F8
:101C6000FFF72CFC0A4B9B68C3F30313094AD35CB0
:101C700003F01F03D840084B1860084B1868FEF7A4
:101C800081FF70BD01207047012070BD002002401F
:101C900000100240B85800080C0000200800002086
:101CA000014B1868704700BF0C00002008B5FFF713
:101CB000F7FF054B9B68C3F30223044AD35C03F090
:101CC0001F03D84008BD00BF00100240C8580008DC
:101CD00008B5FFF7E5FF054B9B68C3F3C223044A31
:101CE000D35C03F01F03D84008BD00BF00100240C2
:101CF000C85800080F2303600B4B9A6802F00302D8
:101D000042609A6802F0F00282609A6802F4E0622F
:101D1000C2609B68DB0803F4E0630361034B1B684C
:101D200003F007030B6070470010024000200240E0
:101D3000F8B55E4BDB6813F0030F19D05B4BDB6823
:101D400003F003030268934204D00124002C48D01E
:101D50002046F8BD002A42D0544BDB68C3F302137F
:101D600001334268934201D00124EFE70024EDE7FC
:101D70000368022B18D0032B1DD0012B0DD001249A
:101D8000002CE3D1494EF26822F073024568013D10
:101D900043EA05131343F360D8E7444A126812F08C
:101DA000020F14D00024EBE7404A126812F4806F4F
:101DB0000FD00024E4E73D4A126812F4003F0AD134
:101DC0003A4A126812F4802F07D00024D8E7012481
:101DD000D6E70124D4E70024D2E70124D0E7012488
:101DE000B4E70F460546314A136823F08063136059
:101DF000FFF74AFA06462D4B1B6813F0006F05D01B
:101E0000FFF742FA801B0228F5D90324002C9FD14A
:101E10004FBB26490B6923F41F3323F44073A86892
:101E2000EA681209520442EA002213430B611F4A76
:101E3000136843F080631360FFF726FA06461B4BD6
:101E40001B6813F0006F05D1FFF71EFA801B0228F4
:101E5000F5D90324002C7FF47BAF144A1369A969D8
:101E60000B43136174E7012F0FD01048026922F071
:101E7000C06222F4FE42A9686B695B08013B5B0605
:101E800043EA012313430361D1E70848026922F4BE
:101E9000C00222F4FE42A9682B695B08013B5B0586
:101EA00043EA012313430361C1E700BF001002406E
:101EB000F8B5554BDB6813F0030F19D0524BDB68B4
:101EC00003F003030268934204D00124002C48D09D
:101ED0002046F8BD002A42D04B4BDB68C3F3021307
:101EE00001334268934201D00124EFE70024EDE77B
:101EF0000368022B18D0032B1DD0012B0DD0012419
:101F0000002CE3D1404EF26822F073024568013D97
:101F100043EA05131343F360D8E73B4A126812F013
:101F2000020F14D00024EBE7374A126812F4806FD6
:101F30000FD00024E4E7344A126812F4003F0AD1BB
:101F4000314A126812F4802F07D00024D8E7012408
:101F5000D6E70124D4E70024D2E70124D0E7012406
:101F6000B4E70F460546284A136823F080531360F0
:101F7000FFF78AF90646244B1B6813F0005F05D073
:101F8000FFF782F9801B0228F5D90324002C9FD18A
:101F90004FBB1D494B6923F41F3323F44073A868DA
:101FA000EA681209520442EA002213434B61164ABE
:101FB000136843F080531360FFF766F90646124B2F
:101FC0001B6813F0005F05D1FFF75EF9801B022844
:101FD000F5D90324002C7FF47BAF0B4A5369696960
:101FE0000B43536174E70848426922F0C06222F44F
:101FF000FE42A9682B695B08013B5B0643EA0123AB
:1020000013434361D3E700BF001002402DE9F041C4
:1020100082B00446036813F4006F2FD0436EB3F50B
:10202000800F23D014D9B3F5000F18D0B3F5400FAB
:1020300022D10026002E40F09980654AD2F88830DF
:1020400023F44003616E0B43C2F88830374617E033
:1020500093B900210430FFF76BFE0646EAE75C4ABD
:10206000D36843F48033D3600026E3E700212030B7
:10207000FFF71EFF0646DDE70126DBE700273E46A9
:10208000236813F4805F15D0A36EB3F1807F7CD0FA
:102090006ED9B3F1007F72D0B3F1407F7CD1002EB6
:1020A0007CD14B4AD2F8883023F04073A16E0B43A9
:1020B000C2F88830236813F4003F00F09280444B4C
:1020C0009B6D13F0805F6BD10123002B6AD0404BD6
:1020D0009A6D42F080529A659B6D03F08053019394
:1020E000019B4FF001083B4A136843F4807313606F
:1020F000FFF7CAF80546374B1B6813F4807F05D1FC
:10210000FFF7C2F8401B0228F5D90326002E63D141
:102110002F4BD3F8903013F4407316D0D4F88420AA
:10212000934212D02A4AD2F8903023F44073D2F866
:10213000901041F48031C2F89010D2F8901021F440
:102140008031C2F89010C2F8903013F0010F2CD1FA
:10215000002E40F044811E4AD2F8903023F44073A0
:10216000D4F884100B43C2F8903036E0374687E746
:1021700093B90021201DFFF7DBFD06468FE7144AC7
:10218000D36843F48033D36089E7002104F1200051
:10219000FFF78EFE064682E7012680E7374689E78D
:1021A000002392E74FF000089DE7FFF76DF8054622
:1021B000074BD3F8903013F0020FC9D1FFF764F842
:1021C000401B41F288339842F2D90326C0E700BF92
:1021D00000100240007000403746B8F1000F40F098
:1021E0000081236813F0010F08D09D4AD2F888308F
:1021F00023F00303A16B0B43C2F88830236813F06C
:10220000020F08D0964AD2F8883023F00C03E16B15
:102210000B43C2F88830236813F0040F08D0904AAB
:10222000D2F8883023F03003216C0B43C2F8883099
:10223000236813F0080F08D0894AD2F8883023F0B9
:10224000C003616C0B43C2F88830236813F0100F91
:1022500008D0834AD2F8883023F44073A16C0B4332
:10226000C2F88830236813F0200F08D07C4AD2F8D7
:10227000883023F44063E16C0B43C2F88830236854
:1022800013F4007F08D0764AD2F8883023F4402334
:10229000E16D0B43C2F88830236813F4806F08D0D7
:1022A0006F4AD2F8883023F44013216E0B43C2F8F2
:1022B0008830236813F0400F08D0694AD2F888307C
:1022C00023F44053216D0B43C2F88830236813F088
:1022D000800F08D0624AD2F8883023F44043616D01
:1022E0000B43C2F88830236813F4807F08D05C4A1F
:1022F000D2F8883023F44033A16D0B43C2F8883004
:10230000236813F4005F0FD0554AD2F8883023F0C9
:102310004063E16E0B43C2F88830E36EB3F1006FA7
:1023200065D0B3F1806F67D0236813F4002F0FD00E
:102330004B4AD2F8883023F04063216F0B43C2F838
:102340008830236FB3F1006F5ED0B3F1806F60D03F
:10235000236813F4802F0FD0414AD2F8883023F03D
:102360004063616F0B43C2F88830636FB3F1006F55
:1023700057D0B3F1806F59D0236813F4804F0FD03A
:10238000374AD2F8883023F04053A16F0B43C2F88C
:102390008830A36FB3F1805F50D0B3F1005F55D0A8
:1023A000236813F4004F08D02D4AD2F8883023F068
:1023B0008043E16F0B43C2F88830236813F4803FF9
:1023C00009D0274AD2F8883023F00043D4F880108F
:1023D0000B43C2F88830384602B0BDE8F08137467A
:1023E000FBE61F4A936D23F080539365F9E6D368AB
:1023F00043F48013D36097E70121201DFFF798FC79
:10240000002891D007468FE7D36843F48013D36048
:102410009EE70121201DFFF78BFC002898D007467E
:1024200096E7D36843F48013D360A5E70121201D0C
:10243000FFF77EFC00289FD007469DE70221201D64
:10244000FFF776FC0028ABD00746A9E7022104F18C
:102450002000FFF72DFD0028A2D00746A0E700BF0F
:1024600000100240024A136843F0040313607047EF
:1024700000100240F0B583B000239AE04FEAD30E7B
:102480000EF1080E50F82E4003F00706B6000F2795
:10249000B74024EA07040F6907FA06F6344340F808
:1024A0002E4095E086682640CF6807FA0EF73E4337
:1024B0008660466826EA05064F68C7F300179F4006
:1024C0003E4346604E6806F00307032F00F09B80F2
:1024D000C5682C408D6805FA0EF52C43C4604C6825
:1024E00014F0805F64D0544C256E45F001052566DC
:1024F000246E04F001040194019C9C08A61C4F4D1D
:1025000055F8265003F00306B7000F26BE4025EA13
:102510000605B0F1904F00F08180494EB0427FD067
:1025200006F58066B0427DD006F58066B0427BD06D
:1025300006F58066B04279D006F58066B04277D065
:1025400006F58066B04267D00726BE4035430234A8
:102550003A4E46F824503B4C2568D44305EA04061D
:102560004F6817F4803F01D042EA0506354D2E60D2
:102570006D6804EA05064F6817F4003F01D042EA8F
:102580000506304D6E60AD6804EA05064F6817F425
:10259000801F01D042EA05062A4DAE60ED682C404E
:1025A0004E6816F4001F01D042EA0504254AD460A3
:1025B00001330A6832FA03F43CD001259D402A40D9
:1025C000F6D04C68022C3FF459AF122C3FF456AFB2
:1025D00006684FEA430E032404FA0EF4E44326404F
:1025E0004F6807F0030707FA0EF73E4306604E6890
:1025F000771E012F7FF656AF112E3FF453AF122EE8
:102600007FF460AF4EE7C76A27EA0505C6F3C00648
:102610009E402E43C6625BE7062696E7002694E7B7
:10262000012692E7022690E703268EE704268CE730
:1026300005268AE703B0F0BD00100240000001400B
:1026400000040048000401400AB9816270478161BA
:102650007047704708B5054B5B69034200D108BD60
:10266000024B5861FFF7F5FFF9E700BF0004014096
:10267000024A136843F4807313607047007000408F
:10268000024B186800F4C060704700BF0070004043
:10269000B0F5007F0FD01F4B1B6803F4C063B3F588
:1026A000806F34D01B4A136823F4C06343F4806303
:1026B000136000207047174B1B6803F4C063B3F529
:1026C000007F20D0134A136823F4C06343F40073DF
:1026D0001360114B1A68322303FB02F30F4AA2FB6B
:1026E00003239B0C013300E0013B0A4A526912F4B8
:1026F000806F01D0002BF7D1064B5B6913F4806F1C
:1027000003D003207047002070470020704700204E
:10271000704700BF007000400C00002083DE1B43A8
:10272000024A536843F4806353607047007000406E
:10273000074AD36823F4E0631B041B0C000200F477
:10274000E060184340F0BF6040F40030D060704754
:1027500000ED00E030B4164BDB68C3F30223C3F195
:102760000704042C28BF04241D1D062D17D9033B84
:10277000012505FA04F4013C2140994005FA03F3D0
:10278000013B1340194300280BDB0901C9B200F1DA
:10279000604000F5614080F8001330BC70470023B2
:1027A000E6E700F00F000901C9B2024B1954F4E743
:1027B00000ED00E014ED00E0002808DB420900F025
:1027C0001F00012303FA00F0014B43F82200704779
:1027D00000E100E02DE9F04105460F461646984617
:1027E000069C2B689B683B4214BF01230023B34225
:1027F00014D0B4F1FF3FF4D0FEF746FDA0EB080083
:10280000844201D3002CECD1042385F83930EB6BE2
:1028100043F00103EB630120BDE8F0810020BDE837
:10282000F08101647047000030B583B00446FEF7C4
:102830002BFD002C52D0054694F83830DBB2012B2A
:102840004ED0012384F8383094F83930002B3AD038
:1028500021680B6823F47063A268013A43EA0223FB
:102860000B60236C00932B46002220212046FFF7AB
:10287000B1FF024608BB2068036823F07F4323F0C2
:1028800010036568E16841EA05610B430360206855
:102890004168144B0B402569616941EA0541A5690E
:1028A00029430B43436021680B6843F001030B602D
:1028B0000023E363012384F83930002384F838309F
:1028C000104603B030BD84F838302046FEF722F9B8
:1028D00041F288312046FFF7A4FFB9E70122EFE774
:1028E0000222EDE7FEF8E0FF704700000268D368BF
:1028F00043F00103D36002689168064B0B40062B3E
:1029000006D0B3F5803F03D0136843F00103136092
:1029100000207047070001007047704770477047FC
:1029200010B5044603681A6912F0020F11D0DA6874
:1029300012F0020F0DD06FF002021A61012303772B
:1029400003689B6913F0030F79D0FFF7E6FF0023BC
:10295000237723681A6912F0040F12D0DA6812F094
:10296000040F0ED06FF004021A610223237723684C
:102970009B6913F4407F68D02046FFF7CEFF002309
:10298000237723681A6912F0080F12D0DA6812F060
:10299000080F0ED06FF008021A6104232377236812
:1029A000DB6913F0030F57D02046FFF7B6FF002373
:1029B000237723681A6912F0100F12D0DA6812F028
:1029C000100F0ED06FF010021A61082323772368CE
:1029D000DB6913F4407F46D02046FFF79EFF0023BB
:1029E000237723681A6912F0010F03D0DA6812F016
:1029F000010F3FD123681A6912F0800F03D0DA6803
:102A000012F0800F3DD123681A6912F4807F03D041
:102A1000DA6812F0800F3BD123681A6912F0400F78
:102A200003D0DA6812F0400F39D123681A6912F026
:102A3000200F03D0DA6812F0200F37D110BDFFF756
:102A40006BFF2046FFF76AFF81E72046FFF764FF30
:102A50002046FFF763FF92E72046FFF75DFF204621
:102A6000FFF75CFFA3E72046FFF756FF2046FFF77E
:102A700055FFB4E76FF001021A612046FDF7B8FD7B
:102A8000B8E76FF080021A61204600F095F8BAE7C7
:102A90006FF480721A61204600F08FF8BCE76FF087
:102AA00040021A612046FFF73AFFBEE76FF02002AE
:102AB0001A61204600F07FF8C0E700000368304A42
:102AC000904212D0B0F1804F0FD0A2F594329042D4
:102AD0000BD002F58062904207D002F580629042EE
:102AE00003D002F59432904203D123F070034A6878
:102AF0001343234A90421ED0B0F1804F1BD0A2F561
:102B00009432904217D002F58062904213D002F5C1
:102B1000806290420FD002F5943290420BD002F5C1
:102B20004062904207D002F58062904203D002F5E5
:102B30008062904203D123F44073CA68134323F0A8
:102B400080034A69134303608B68C3620B68836226
:102B50000B4B98420FD003F5006398420BD003F55E
:102B60004063984207D003F58063984203D003F591
:102B70008063984201D10B6903630123436170476D
:102B8000002C0140A8B110B5044690F83D305BB16F
:102B9000022384F83D30211D2068FFF78FFF0123B9
:102BA00084F83D30002010BD80F83C30FFF79CFEDB
:102BB000EEE7012070477047704770472DE9784B6A
:102BC0000446016883680269134342691343C2697A
:102BD000134308689F4A024013430B6022685368FE
:102BE00023F44053E1680B435360A36922689A4978
:102BF0008A4201D0216A0B43916821F430610B4372
:102C000093602368954A934227D0954A934238D0DF
:102C1000944A93424ED0944A934261D0934A93424D
:102C200074D08D4A934200F08A8010258A4A9342DC
:102C300000F0AA80E369B3F5004F00F02C81082D65
:102C400000F2B781DFE815F076018D019701B5013B
:102C5000A201B501B501B501AC0102F55842D2F8A7
:102C6000882002F00302032A09D8DFE802F00204F8
:102C700081060125DAE70425D8E70825D6E71025DF
:102C8000D4E702F5E632D2F8882002F00C020C2AD2
:102C90000ED8DFE802F0070D0D0D090D0D0D6F0DBB
:102CA0000D0D0B000025C1E70425BFE70825BDE792
:102CB0001025BBE702F5E432D2F8882002F030029A
:102CC000102A09D005D9202A56D0302A06D1082545
:102CD000ACE71AB90025A9E70425A7E71025A5E761
:102CE00002F5E232D2F8882002F0C002402A09D070
:102CF00005D9802A42D0C02A06D1082596E71AB9FC
:102D0000002593E7042591E710258FE702F5E032CF
:102D1000D2F8882002F44072B2F5807F0BD007D938
:102D2000B2F5007F2CD0B2F5407F06D108257DE7B3
:102D30001AB900257AE7042578E7102576E702F529
:102D4000C832D2F8882002F44062B2F5806F0BD00E
:102D500007D9B2F5006F15D0B2F5406F06D108253E
:102D600064E71AB9002561E704255FE710255DE7F0
:102D700002255BE7022559E7022557E7022555E7BB
:102D8000022553E7022551E7082D11D8DFE805F0A9
:102D9000081005100C1010101300354800260DE027
:102DA000FEF784FF002609E0FEF788FB002605E019
:102DB0000020012602E04FF400400026002800F029
:102DC000CA80626802EB42039842C0F0F580B0EB23
:102DD000023F00F2F380082D5AD8DFE805F00559CC
:102DE0001F59295959594F00FEF760FF00234FEA38
:102DF00010694FEA00286268500818EB000B49F18F
:102E0000000C58466146FDF7F9F9A0F54072194BE0
:102E10009A4200F2D5802368D8609CE055080023D0
:102E200015480021401941F10001FDF7E7F9ECE7F1
:102E3000FEF744FB00234FEA10694FEA002862685E
:102E4000500818EB000B49F1000C58466146FDF79D
:102E5000D5F9DAE7F369FFEF008000400038014060
:102E60000044004000480040004C0040005000403A
:102E70000024F400FFFC0F00000024F4500800219F
:102E8000002310F5000041F10001FDF7B7F9BCE7A0
:102E900001260020B9E7082D49D8DFE805F0051E16
:102EA0002948344848483F00FEF700FF626853084D
:102EB00003EB4003B3FBF2F39BB20026A3F1100136
:102EC0004FF6EF7291427DD89AB222F00F02C3F30F
:102ED000420313432268D3603DE0FEF7F9FE6268C7
:102EE000530803EB4003B3FBF2F39BB20026E5E784
:102EF0006268530803F1F47303F59043B3FBF2F3F4
:102F00009BB20026DAE7FEF7D9FA6268530803EBB2
:102F10004003B3FBF2F39BB20026CFE7626853088D
:102F200003F58033B3FBF2F39BB20026C6E701261C
:102F30000023C3E7FEF7BAFE636800EB5300B0FB63
:102F4000F3F080B20026A0F110024FF6EF739A4220
:102F50003AD82368D8600023236663663046BDE80C
:102F6000788BFEF7B5FE636800EB5300B0FBF3F01F
:102F700080B20026E7E76368580800F5740000F5A2
:102F80001050B0FBF3F080B20026DCE7FEF796FAB3
:102F9000636800EB5300B0FBF3F080B20026D2E789
:102FA0006368580800F50040B0FBF3F080B20026DB
:102FB000C9E701260020C6E70126CCE70126CAE7BB
:102FC0000126C8E70126C6E70126C4E7436A13F0D5
:102FD000010F06D00268536823F40033816A0B4363
:102FE0005360436A13F0020F06D00268536823F45B
:102FF0008033C16A0B435360436A13F0040F06D059
:103000000268536823F48023016B0B435360436AC7
:1030100013F0080F06D00268536823F40043416B95
:103020000B435360436A13F0100F06D00268936895
:1030300023F48053816B0B439360436A13F0200F9A
:1030400006D00268936823F40053C16B0B4393606E
:10305000436A13F0400F0AD00268536823F48013C8
:10306000016C0B435360036CB3F5801F0BD0436AB4
:1030700013F0800F06D00268536823F40023816C9C
:103080000B43536070470268536823F4C003416CDC
:103090000B435360EBE72DE9F04105460F4616461A
:1030A0009846069C2B68DB6937EA03030CBF0123B3
:1030B0000023B3421DD1B4F1FF3FF3D0FEF7E4F893
:1030C000A0EB0800844201D3002CEBD12A681368DE
:1030D00023F4D07313602A68936823F0010393608C
:1030E00020236B67AB67002385F870300320BDE8B1
:1030F000F0810020BDE8F08130B583B004460023A4
:10310000C367FEF7C1F8054623681B6813F0080F74
:103110000CD123681B6813F0040F15D120236367BB
:10312000A367002084F8700003B030BD6FF07E43C9
:103130000093034600224FF400112046FFF7ABFF37
:103140000028E6D00320EFE76FF07E4300932B4684
:1031500000224FF480012046FFF79DFF0028DDD0BC
:103160000320E1E768B310B50446436F03B324239B
:1031700063672268136823F0010313602046FFF79A
:103180001DFD01281FD0636ABBB92268536823F470
:10319000904353602268936823F02A039360226867
:1031A000136843F0010313602046FFF7A5FF10BD2D
:1031B00080F87030FDF73EFDD9E72046FFF706FFA7
:1031C000E3E70120704710BDF0B58BB0002800F098
:1031D00091800446056890F8BD3323B3032384F837
:1031E000BD33EB6B13F4807F01D100232361206892
:1031F00000F0EDF8254655F8107B6E460FCD0FC652
:103200000FCD0FC695E8030086E80300231D0ECB03
:10321000384600F0A3F858B1022384F8BD330125E5
:1032200028460BB0F0BD80F8BC33FDF753FDD5E761
:103230000021206800F0D1F8002315E0D900C81A59
:1032400082002244012082F83D0082F83C30A2F83E
:103250004230002082F83F0050649064CA1A910006
:10326000214408650133DBB26568AB42E6D3002335
:1032700015E0D800C11A8A002244002182F8FD110D
:1032800082F8FC3182F8FF11C2F80412C2F8081269
:10329000C21A90002044C0F810120133DBB29D42E4
:1032A000E7D8254655F8107B6E460FCD0FC60FCDDB
:1032B0000FC695E8030086E80300231D0ECB3846B1
:1032C00000F0D2F8054660B9002384F838300123B5
:1032D00084F8BD33636A012B08D0206800F072F9CE
:1032E0009EE7022384F8BD33012599E7204600F0CC
:1032F00003F8F2E7012593E7034602680121C0F8CD
:10330000FC13002083F8F403936943F00063936196
:10331000536D43F0805343F003035365704700003F
:10332000002301330C4A934211D80269002AF8DACB
:10333000036943F00103036100230133064A93420A
:1033400007D8026912F0010FF7D10020704703205F
:1033500070470320704700BF400D030084B010B5D4
:10336000044603A880E80E00089B012B0DD0E368FB
:1033700043F04003E3602046FFF7D2FF0C9B0BB302
:10338000A36B23F48033A36313E0A36B23F4803394
:10339000A363E36823F4840323F04003E360E3685A
:1033A00023F44013E3600F9B012B06D02046FFF768
:1033B000B7FFBDE8104004B07047E36843F48013E2
:1033C000E360F3E7A36B43F48033A363F1E783681F
:1033D00023F0010383600020704708B5C36823F021
:1033E000C043C360012909D069B9C36843F0804371
:1033F000C3603220FDF74EFF002008BDC36843F0D4
:103400000053C360F5E7012008BD0000890141F0C9
:103410002001016100230133054A934205D8026966
:1034200012F0200FF7D1002070470320704700BF33
:10343000400D03001023036100230133054A93422A
:1034400005D8026912F0100FF7D100207047032051
:10345000704700BF400D0300D0F800381943C0F892
:10346000001800207047000084B02DE9F0410446A8
:1034700007A880E80E002546002306E003F140027D
:1034800004EB82020021516001330E2BF6D9119B0F
:103490005BBBA36B23F40013A363236843F04003D7
:1034A0002360236843F0800323600023C4F8003EB8
:1034B00004F50066D4F80038C4F80038032120462B
:1034C000FFF7CAFF10212046FFF7A0FF804608B192
:1034D0004FF001082046FFF7ADFF08B14FF001089B
:1034E000002333617361F3610FE0A36B43F40013B6
:1034F000A363DAE7C3B94FF00060C2F80009002205
:103500000A614FF67F328A60013307998B4210D2ED
:1035100005EB431202F51061D2F800090028E9DB3F
:103520000020C2F80009EAE74FF09040C2F8000915
:10353000E5E700230AE0BBB14FF09047C2F8007BFB
:10354000002202614FF67F32826001338B4210D23B
:1035500005EB431202F53060D2F8007B002FEADB66
:103560000027C2F8007BEBE74FF00067C2F8007B52
:10357000E6E7336923F4807333610023A3616FF0BE
:1035800080436361A36943F01003A361A2690C4BFC
:103590001343A3610D9B1BB1A36943F00803A3610F
:1035A000119B012B04D04046BDE8F04104B07047A8
:1035B000A36943F0804343F00403A361F3E700BF32
:1035C00000383C8008B5D0F8043843F00203C0F856
:1035D00004380320FDF75EFE002008BD0F49D1F836
:1035E000883043F47003C1F888300D4B1A6842F0FC
:1035F00001021A60002098601A6822F0A85222F492
:1036000010221A604FF48052DA601A6822F4802285
:103610001A6098614FF000638B60704700ED00E026
:103620000010024000F1080343604FF0FF32826057
:10363000C360036100230360704700230361704788
:1036400043684B609A688A609A6851609960086123
:10365000036801330360704730B40D68B5F1FF3F74
:1036600002D000F1080202E0026904E01A46536841
:103670001C68A542FAD253684B6099608A60516019
:10368000086103680133036030BC70470369426816
:10369000816891608268416851605A68904206D0A2
:1036A000002202611A68013A1A601868704782683D
:1036B0005A60F5E710B5044601F0ECFCA26BE36B31
:1036C0009A4204D0002401F007FD204610BD0124D9
:1036D000F9E710B5044601F0DDFCA36B23B100242B
:1036E00001F0FAFC204610BD0124F9E770B504464C
:1036F0001646856B026C4AB9036853BB406800F0FC
:10370000E5FF002363600135A56370BD6EB9806875
:1037100002F09CF8226CA3681344A3606268934291
:1037200019D32368A3600020EDE7C06802F08EF88B
:10373000236C5B42E2681A44E26021688A4202D24A
:1037400062681344E360022E07D145B1013D0020B9
:10375000D9E70020D7E70020D5E70020D3E70020F5
:10376000D1E7026C72B110B50346C4681444C4605A
:103770004068844201D31868D8600846D96802F0CE
:1037800065F810BD704738B5054601F083FC95F823
:10379000454064B201E0013C64B2002C0ADD6B6A72
:1037A00043B105F1240000F0E9FE0028F3D000F059
:1037B00077FFF0E7FF2385F8453001F08DFC01F03D
:1037C00069FC95F8444064B201E0013C64B2002C0D
:1037D0000ADD2B6943B105F1100000F0CFFE00288F
:1037E000F3D000F05DFFF0E7FF2385F8443001F0EF
:1037F00073FC38BD38B530B304460D4601F04AFCC1
:103800002168E26B236C03FB021060600020A06360
:10381000A160013A02FB0313E360FF2384F8443004
:1038200084F84530C5B92369F3B104F1100000F004
:10383000A5FEC8B14FF080520D4B1A60BFF34F8FF9
:10384000BFF36F8F10E04FF0500383F31188BFF385
:103850006F8FBFF34F8FFEE704F11000FFF7E2FE1A
:1038600004F12400FFF7DEFE01F036FC012038BD34
:1038700004ED00E038B51D46049C0B4649B12260BA
:10388000E063236401212046FFF7B4FF84F84C5025
:1038900038BD2460F4E740B94FF0500383F311883A
:1038A000BFF36F8FBFF34F8FFEE710B584B00446B0
:1038B00063B1A2B1A9B10120A8B94FF0500383F3BD
:1038C0001188BFF36F8FBFF34F8FFEE74FF05003A8
:1038D00083F31188BFF36F8FBFF34F8FFEE7012093
:1038E000EAE70020E8E70AB901B1002040B94FF04B
:1038F000500383F31188BFF36F8FBFF34F8FFEE741
:10390000502003900398502808D04FF0500383F3C1
:103910001188BFF36F8FBFF34F8FFEE720461C4621
:10392000012384F8463000949DF81830FFF7A2FF79
:10393000204604B010BD0000F0B585B0019260B122
:10394000044699B10125BDB94FF0500383F31188A6
:10395000BFF36F8FBFF34F8FFEE74FF0500383F33A
:103960001188BFF36F8FBFF34F8FFEE7026C0AB968
:103970000125E8E70025E6E7022B09D06DB94FF0F5
:10398000500383F31188BFF36F8FBFF34F8FFEE7B0
:10399000E26B012AF2D00025F0E71E460F4600F048
:1039A00085FE10B9019B03B1002545B94FF05003C6
:1039B00083F31188BFF36F8FBFF34F8FFEE70025AE
:1039C0002CE0324639462046FFF790FE636A8BB101
:1039D00004F1240000F0D2FD38B14FF08052374B93
:1039E0001A60BFF34F8FBFF36F8F01F075FB01209B
:1039F00005B0F0BD0028F8D04FF080522F4B1A6070
:103A0000BFF34F8FBFF36F8FEFE701F065FB00202F
:103A1000EEE72046FFF7B7FE00F088FC01F03AFB26
:103A2000A26BE36B9A42CCD3022ECAD0019B002B2F
:103A3000EBD01DB902A800F0E7FD012501F04CFB19
:103A400000F0D6FB01F026FB94F844305BB2B3F1F2
:103A5000FF3F02D1002384F8443094F845305BB234
:103A6000B3F1FF3F02D1002384F8453001F034FB6D
:103A700001A902A800F0D4FDC8B92046FFF71AFE3C
:103A80000028C6D0019904F1100000F043FD204643
:103A9000FFF779FE00F04AFC0028BFD14FF08052BA
:103AA000064B1A60BFF34F8FBFF36F8FB6E7204608
:103AB000FFF769FE00F03AFC002099E704ED00E012
:103AC0002DE9F84360B1044699B10120B8B94FF02F
:103AD000500383F31188BFF36F8FBFF34F8FFEE75F
:103AE0004FF0500383F31188BFF36F8FBFF34F8FF5
:103AF000FEE7006C08B90120E8E70020E6E7022BAA
:103B000009D068B94FF0500383F31188BFF36F8F6A
:103B1000BFF34F8FFEE7E56B012DF2D00020F0E7F9
:103B20001F469046894601F0DFFBEFF311864FF008
:103B3000500383F31188BFF36F8FBFF34F8FA26BD6
:103B4000E36B9A4201D3022F21D194F845506DB214
:103B50003A4649462046FFF7C9FDB5F1FF3F10D16F
:103B6000636AB3B104F1240000F008FD98B1B8F124
:103B7000000F12D00120C8F8000086F31188BDE8BC
:103B8000F8836B1C5BB284F845300120F5E7002018
:103B9000F3E70120F1E70120EFE70120EDE7000066
:103BA000F0B585B0019260B1044699B10125BDB967
:103BB0004FF0500383F31188BFF36F8FBFF34F8F24
:103BC000FEE74FF0500383F31188BFF36F8FBFF30D
:103BD0004F8FFEE7036C0BB90125E8E70025E6E708
:103BE0000E4600F063FD10B9019B03B1002545B9F5
:103BF0004FF0500383F31188BFF36F8FBFF34F8FE4
:103C0000FEE700272FE031462046FFF7AAFD013DE1
:103C1000A563236963B104F1100000F0AFFC38B173
:103C20004FF08052344B1A60BFF34F8FBFF36F8F4A
:103C300001F052FA012005B0F0BD01F04DFA00206C
:103C4000F9E702A800F0E0FC012716E0002384F861
:103C500044301EE0002384F8453020E02046FFF782
:103C600092FD00F063FB01F015FAA56B002DCAD19F
:103C7000019B002BE1D0002FE3D001F02DFA00F0E2
:103C8000B7FA01F007FA94F844305BB2B3F1FF3FA2
:103C9000DCD094F845305BB2B3F1FF3FDAD001F0ED
:103CA0001BFA01A902A800F0BBFCC8B92046FFF727
:103CB00010FD0028D2D0019904F1240000F02AFC64
:103CC0002046FFF760FD00F031FB0028CBD14FF01C
:103CD0008052094B1A60BFF34F8FBFF36F8FC2E75B
:103CE0002046FFF750FD00F021FB2046FFF7F1FCD6
:103CF0000028B8D000209EE704ED00E00023072B49
:103D00000CD8074A52F833200AB10133F7E7044AC6
:103D100042F8331002EBC30358607047704700BF8E
:103D2000501F002070B504460D46164601F0B2F94A
:103D300094F844305BB2B3F1FF3F0DD094F84530B6
:103D40005BB2B3F1FF3F0BD001F0C6F9A36B5BB1DF
:103D50002046FFF718FD70BD002384F84430EDE7DE
:103D6000002384F84530EFE73246294604F1240069
:103D700000F0E8FBECE700000A4B1B681B684BB93E
:103D800001234BB9074B1B68DB68DB685A68064B9D
:103D90001A6070470023F4E74FF0FF32024B1A60BD
:103DA000704700BF60000020080500202DE9F047A3
:103DB00081460D4617469A46089EDDF824800A9CE7
:103DC0009200A521206B01F04CFD236B07F180428E
:103DD000013A03EB820727F0070700230F2B07D8D0
:103DE000E95CE21882F83410EA5C0AB10133F5E7C5
:103DF000002384F84330372E00D93726E662E66484
:103E000000252565201DFFF718FC04F11800FFF7B9
:103E100014FC2461C6F13806A6616462656584F805
:103E2000585052464946384601F00AF92060B8F128
:103E3000000F01D0C8F80040BDE8F08738B5002475
:103E400007E004EB840293000E481844FFF7EAFBF6
:103E50000134372CF5D90C4D2846FFF7E3FB0B4C0A
:103E60002046FFF7DFFB0A48FFF7DCFB0948FFF7B6
:103E7000D9FB0948FFF7D6FB084B1D60084B1C60B7
:103E800038BD00BF68000020E0040020F4040020DA
:103E9000100500203C0500202805002060000020BF
:103EA0006400002010B5044601F0F4F8214A1368BC
:103EB00001331360204B1B68002B32D01F4B1B6853
:103EC0003BB91D4B1B68DA6AE36A9A4201D81A4B68
:103ED0001C601B4A1368013313606364E36A194A68
:103EE0001268934201D9174A136003EB83039A00C7
:103EF000211D15481044FFF7A3FB01F0EDF80F4B0F
:103F00001B686BB10C4B1B68DA6AE36A9A4207D2F2
:103F10004FF080520D4B1A60BFF34F8FBFF36F8F7E
:103F200010BD054B1C601368012BD2D1FFF786FF33
:103F3000CFE700BFC80400205C000020240500205B
:103F4000D8040020DC0400206800002004ED00E01C
:103F500010B5044690F8593063B1012B11D0022BF3
:103F600012D04FF0500383F31188BFF36F8FBFF36C
:103F70004F8FFEE7006B00F0EDFF204600F0EAFFF8
:103F800010BD00F0E7FF10BD10BD00000F4B1B6817
:103F9000D3B110B501F07EF80D4BDB68DC68201D55
:103FA000FFF774FB0B4A1368013B1360074A136861
:103FB000013B136001F090F82046FFF7C9FF034B67
:103FC0001B68002BE6D110BD704700BFCC04002059
:103FD0003C050020C804002008B5FFF7D7FF064BBA
:103FE0001B68012BF9D94FF08052044B1A60BFF3C4
:103FF0004F8FBFF36F8FF0E76800002004ED00E003
:1040000070B504460E46174B1D68174B18680430F0
:10401000FFF73CFBB4F1FF3F13D02C44124B1B685D
:104020005C60A54216D8114B18680F4B1968043113
:10403000FFF712FB0E4B1B689C4201D20C4B1C601D
:1040400070BD002EE9D0084B196804310948FFF70C
:10405000F7FA70BD084B1868034B19680431FFF775
:10406000FBFA70BD500500205C00002060000020BD
:1040700008050020280500206400002070B586B0E7
:104080000B9D0C9C75B1B4B15C260496049E5C2E0D
:104090001AD04FF0500383F31188BFF36F8FBFF333
:1040A0004F8FFEE74FF0500383F31188BFF36F8FFC
:1040B000BFF34F8FFEE74FF0500383F31188BFF338
:1040C0006F8FBFF34F8FFEE72563022584F85950A9
:1040D00000250395029405AD01950A9D0095FFF713
:1040E00065FE2046FFF7DEFE059806B070BD2DE99F
:1040F000F04385B006460F4615469846900000F0FE
:10410000A5FE10B381465C2000F0A0FE0446C0B1BD
:10411000C0F83090DCB1002384F859300393029446
:104120000D9B01930C9B009343462A46394630462B
:10413000FFF73CFE2046FFF7B5FE012005B0BDE8C5
:10414000F083484600F006FFE4E70024E2E74FF082
:10415000FF30F3E710B588B000240594069407AA51
:1041600006A905A800F0FAFD059B0293069B0193A2
:1041700000942346079A19491948FFF77FFF48B171
:104180000120012808D0012809D0B0F1FF3F1BD041
:1041900008B010BD0020F4E700F04CFBF3E74FF04F
:1041A000500383F31188BFF36F8FBFF34F8F4FF02E
:1041B000FF320C4B1A6001220B4B1A6000220B4B92
:1041C0001A6001F009F8E3E74FF0500383F3118818
:1041D000BFF36F8FBFF34F8FFEE700BF005900089A
:1041E000D93F0008080500202405002050050020C4
:1041F000024A136801331360704700BFD4040020E3
:10420000014B1868704700BF50050020F8B53C4BC3
:104210001B68002B68D13B4B1D6801351D60C5B97B
:10422000394B1B681B6843B14FF0500383F311886F
:10423000BFF36F8FBFF34F8FFEE7334A1168334BE5
:10424000186810601960324A136801331360FFF771
:1042500093FD304B1B689D423AD200242E4B1B68C5
:10426000DB6A03EB83039A002C4B9B58012B40D94C
:1042700001243EE00124244B1B681B6853B3002338
:1042800053BB214B1B68DB68DE6873689D4228D3F3
:10429000371D3846FFF7FAF9B36A1BB106F118006B
:1042A000FFF7F4F9F36A1E4A1268934201D91C4AD7
:1042B000136003EB83039A00394618481044FFF754
:1042C000BFF9F26A144B1B68DB6A9A42D2D2D2E77A
:1042D0000024D0E70123D3E74FF0FF320D4B1A60E3
:1042E000BCE70C4A1360B9E70E4A13680133136048
:1042F00000240D4B1B6803B101242046F8BD00BF0C
:10430000D40400205005002060000020640000203C
:104310000C050020080500205C000020680000203B
:10432000DC040020D00400205405002038B5354BB3
:104330001B6843B94FF0500383F31188BFF36F8FAD
:10434000BFF34F8FFEE700F0A5FE2E4B1A68013A2F
:104350001A601B68002B50D12B4B1B6823B900241B
:1043600000F0BAFE204638BD0024284B1B681BB362
:10437000264BDB68DC6804F11800FFF787F9251D80
:104380002846FFF783F9E36A214A1268934201D96C
:104390001F4A136003EB83039A0029461D4810440B
:1043A000FFF74EF9E26A1C4B1B68DB6A9A42DCD3CA
:1043B00001221A4B1A60D8E70CB1FFF7DDFC184B4D
:1043C0001C6874B9154B1B68CBB14FF08052154B6C
:1043D0001A60BFF34F8FBFF36F8F0124C0E7013C1A
:1043E00007D0FFF713FF0028F9D001220B4B1A600A
:1043F000F5E700220A4B1A60E4E70024B0E7002446
:10440000AEE700BFD4040020C8040020100500203F
:10441000DC040020680000205C000020540500201F
:10442000D004002004ED00E010B5A8B10446104B04
:104430001B6843B14FF0500383F31188BFF36F8FB4
:10444000BFF34F8FFEE7FFF7D3FE00212046FFF7B3
:10445000D7FDFFF76BFF00E0002038B94FF0805226
:10446000044B1A60BFF34F8FBFF36F8F10BD00BFB7
:10447000D404002004ED00E0214B1B686BB900223E
:10448000204B1A60204B1B6803EB83018A001F49F5
:104490008A587AB92BB1013BF6E70122194B1A6011
:1044A00070474FF0500383F31188BFF36F8FBFF352
:1044B0004F8FFEE710B408469A00D418A1000144BB
:1044C0004C6864684C601A44910008310844844286
:1044D0000DD003EB830291000C4A0A445268D16864
:1044E0000B4A1160084A13605DF8044B704760681E
:1044F00003EB83029100054A0A445060E9E700BFDC
:10450000D404002054050020DC04002068000020B2
:104510005C00002040B94FF0500383F31188BFF3D3
:104520006F8FBFF34F8FFEE710B50C46044B196831
:104530001831FFF791F801212046FFF761FD10BD0A
:104540005C00002038B570B10C4615460A4A116867
:104550001831FFF775F80DB14FF0FF3429462046AA
:10456000FFF74EFD38BD4FF0500383F31188BFF3C2
:104570006F8FBFF34F8FFEE75C00002038B5C36834
:10458000DC6824B304F118052846FFF77FF8184BC0
:104590001B682BBB251D2846FFF778F8E36A154AF0
:1045A0001268934201D9134A136003EB83039A0004
:1045B000294611481044FFF743F8E26A0F4B1B6885
:1045C000DB6A9A4211D901200D4B186038BD4FF0BB
:1045D000500383F31188BFF36F8FBFF34F8FFEE754
:1045E00029460848FFF72CF8E7E7002038BD00BF50
:1045F000D4040020DC040020680000205C000020BF
:104600005405002010050020034B1B680360034B7A
:104610001B684360704700BF0C0500205005002058
:10462000F8B5E0B1054619B30C4600F033FD1A4B5E
:1046300018686968421A2368B3F1FF3F28D02F68D1
:10464000164E3668B74201D0884223D29A4218D318
:1046500000232360012400F03FFD2046F8BD4FF009
:10466000500383F31188BFF36F8FBFF34F8FFEE7C3
:104670004FF0500383F31188BFF36F8FBFF34F8F59
:10468000FEE79B1A23602846FFF7BEFF0024E2E7FF
:104690000024E0E70124DEE7500500200C0500209F
:1046A0000122014B1A60704754050020054B1B681E
:1046B00023B1054B1B681BB90220704701207047CE
:1046C0000020704724050020D4040020002839D0A1
:1046D00038B504461E4A1268904208D04FF0500385
:1046E00083F31188BFF36F8FBFF34F8FFEE7026D27
:1046F00042B94FF0500383F31188BFF36F8FBFF3BC
:104700004F8FFEE7013A0265C06AE16C88421BD018
:10471000E2B9251D2846FEF7B9FFE36CE362C3F159
:104720003802A2610B4A1268934201D9094A136008
:1047300003EB83039A00294607481044FEF780FFE5
:10474000012038BD00207047002038BD002038BD52
:104750005C000020DC04002068000020064B1A6882
:104760001368B3FA83F35B09036013B9D36818685D
:1047700070470020704700BF5805002008B5416011
:10478000006191420CD8D21A83699A4201D3012068
:1047900008BD011D094B1868FEF75EFF002008BD2B
:1047A0009A4201D2994206D2011D054B1868FEF7C4
:1047B00053FF002008BD012008BD00BF5C0500209C
:1047C0005805002030B583B000F064FC114B1B6825
:1047D0001BB100F081FC03B030BD0F4D2846FEF741
:1047E00021FF0E4C2046FEF71DFF0D4B1D600D4BAB
:1047F0001C60002300930C4B0C4A10210A20FFF789
:104800004AF8044B18600028E3D00949FFF776FA0C
:10481000DFE700BF7C060020000600201406002011
:10482000580500205C0500202C06002060050020B3
:104830000859000810B588B0FFF7C4FF154B1B6876
:104840001BB300240594069407AA06A905A800F046
:1048500091FA059B0293069B019302230093234642
:10486000079A0D490D48FFF709FC0D4B186050B130
:10487000012060B94FF0500383F31188BFF36F8FAD
:10488000BFF34F8FFEE72046F3E70020F1E708B0C3
:1048900010BD00BF7C06002010590008854B0008A1
:1048A00080060020C0B130B585B015460446174AD1
:1048B000106840B31A4600910195029405291CDC4A
:1048C000FFF7F4FE022810D000231A4669460F486D
:1048D0000068FFF731F814E04FF0500383F31188BC
:1048E000BFF36F8FBFF34F8FFEE70023089A69462F
:1048F00006480068FFF720F803E000236946FFF749
:10490000DFF805B030BD0020FBE700BF7C060020CB
:1049100070B582B01A4B1B681A6852B3DB681E6808
:10492000DC68251D2846FEF7B1FE636A20469847DD
:10493000E369012BEED1A36933449E4207D2636041
:10494000246129460E4B1868FEF786FEE2E7002137
:1049500000910B4632462046FFF7A4FF0028D9D12C
:104960004FF0500383F31188BFF36F8FBFF34F8F66
:10497000FEE7044A106802490860136002B070BD87
:10498000580500205C05002038B50546FFF738FCC7
:104990000446074B1B68984205D300232B60044B49
:1049A0001C60204638BDFFF7B3FF01232B60F6E7FC
:1049B0002806002070B582B005460E46144B1B68D1
:1049C000DB68DC68201DFEF761FEE369012B04D083
:1049D000636A2046984702B070BDA1692B463246F3
:1049E00029442046FFF7CAFE0028F1D0002100919B
:1049F0000B462A462046FFF755FF0028E8D14FF026
:104A0000500383F31188BFF36F8FBFF34F8FFEE71F
:104A10005805002070B582B006460C46FFF7E8FB4B
:104A200001A8FFF7B1FF019B23BB05460CB9B042BB
:104A300019D22CB1114B1B681C68B4FA84F46409B8
:104A40002246711B0E4B1868FFF76CF9FFF76EFCDE
:104A500038B94FF080520B4B1A60BFF34F8FBFF342
:104A60006F8F02B070BDFFF761FC29463046FFF73B
:104A7000A1FFF6E7FFF75AFCF3E700BF5C05002053
:104A80007C06002004ED00E030B589B002E0049B14
:104A9000002B0FDA002204A9394B1868FFF780F8C1
:104AA00000286AD0049B002BF1DA07990698059B31
:104AB0009847ECE7069C636913B1201DFEF7E6FDFD
:104AC00003A8FFF761FF049B092BE3D801A252F86A
:104AD00023F000BFFD4A0008FD4A0008FD4A000817
:104AE000954A0008454B00086B4B0008FD4A00083A
:104AF000FD4A0008954A0008454B00080599A5693C
:104B00000B46024629442046FFF738FE0028C1D054
:104B1000636A20469847E369012BBBD1A269002153
:104B200000910B46059802442046FFF7BBFE002883
:104B3000B0D14FF0500383F31188BFF36F8FBFF3F1
:104B40004F8FFEE70599A16131B10346024601444A
:104B50002046FFF713FE9DE74FF0500383F31188C3
:104B6000BFF36F8FBFF34F8FFEE794F82C30002B0D
:104B700090D1204600F0EEF98CE709B030BD00BFBF
:104B80007C06002000B583B001A8FFF7E7FD01997E
:104B9000FFF740FFFFF778FFF6E70000EFF305832C
:104BA0009BB9EFF310839BB90C4B1B68022B05D00C
:104BB0008BB90122094B1A6000207047EFF3118274
:104BC000002AF5D06FF0050070476FF005007047C0
:104BD0006FF0050070474FF0FF307047E00800208D
:104BE00008B5EFF30583B3B9EFF31083B3B90E4BF8
:104BF0001B68022B08D0012B13D102220A4B1A602A
:104C0000FFF7A8FA002008BDEFF31182002AF2D0C6
:104C10006FF0050008BD6FF0050008BD6FF00500DE
:104C200008BD4FF0FF3008BDE0080020F0B587B0A8
:104C300000240494EFF3058454BBEFF310833BBBD3
:104C4000344B1B68022B26D010B300238DF817308D
:104C5000002A32D016681EB3946904B91824631E62
:104C6000372B52D8536813F0010F50D15369D3B189
:104C70004FEA930E95682DB1D7685B2F02D917695B
:104C800007B10BBB95B14FF0FF35012D23D075B3A4
:104C9000049807B0F0BDEFF31183002BF8D1D3E7F0
:104CA0000DF11706D8E74FF0800EE3E7D3686BB934
:104CB000136973B14FF0FF35E7E7002518244FF073
:104CC000800E0DF11706E0E70125DEE74FF0FF3516
:104CD000DBE70025D9E713699268029201930094FB
:104CE0000B4672463146FFF7C9F90490D0E704AA93
:104CF000019200940B461FFA8EF23146FFF7F7F946
:104D00000128C5D000230493C2E70020C1E700209A
:104D1000BFE700BFE008002008B5EFF30583A3B9A3
:104D2000EFF31083A3B90C4B1B68022B02D040B9E0
:104D3000002008BDEFF31183002BF8D06FF00500C1
:104D400008BDFFF771FB002008BD6FF0050008BD2E
:104D50006FF0050008BD00BFE0080020034B0360B2
:104D6000034B0B6080231360704700BF8408002052
:104D700084060020034B0360034B0B604FF48073E9
:104D800013607047E40C0020E4080020134A12F07E
:104D9000070F1FD0D11D21F00701C1F53B63083378
:104DA00013440A460E480260002141601344083B48
:104DB00023F007030B48036059601960991A51608A
:104DC0001360094B1960094B19604FF00042084B02
:104DD0001A60704740F6B833E4E700BF440D002086
:104DE00008190020400D002004190020001900209F
:104DF000FC18002010B4134B1A6882421BD3596868
:104E00005C18A04203D140680144596018464168CB
:104E10004418A24213D10C4C2468A2420DD052680F
:104E2000114441601A6812680260984200D018600C
:104E30005DF8044B70471346DEE70460F5E7026057
:104E4000F3E700BF08190020400D002070B50446AC
:104E5000FFF7CEF93A4B1B68BBB13A4B1B681C42BB
:104E600063D1ACB1083414F0070F11D024F007045B
:104E7000083404F007035BB14FF0500383F311884B
:104E8000BFF36F8FBFF34F8FFEE7FFF77FFFE4E7BE
:104E9000002C4CD02C4B1B689C424AD82B4B1D68D5
:104EA00001E02B4615466A68944202D92A68002A16
:104EB000F7D1234A126895423DD01E6808362A6809
:104EC0001A606B681B1B102B10D9281910F0070FE4
:104ED00008D04FF0500383F31188BFF36F8FBFF3F7
:104EE0004F8FFEE743606C60FFF784FF6A681649E6
:104EF0000B689B1A0B60164909688B4201D2144952
:104F00000B60104B1B6813436B6000232B60FFF793
:104F10000DFA16F0070F10D04FF0500383F31188ED
:104F2000BFF36F8FBFF34F8FFEE70026EFE700263A
:104F3000EDE70026EBE70026E9E7304670BD00BF4D
:104F4000400D0020FC180020001900200819002046
:104F50000419002080B338B50446A0F1080550F8C4
:104F6000042C164909680A4208D14FF0500383F314
:104F70001188BFF36F8FBFF34F8FFEE750F8080C17
:104F800040B14FF0500383F31188BFF36F8FBFF32D
:104F90004F8FFEE722EA010244F8042CFFF728F9BC
:104FA00054F8041C064A13680B4413602846FFF7A4
:104FB00021FFFFF7BBF938BD704700BFFC18002088
:104FC0000019002082B0002301930D4B1B68B3F140
:104FD000FF3F08D04FF0500383F31188BFF36F8F6A
:104FE000BFF34F8FFEE74FF0500383F31188BFF3F9
:104FF0006F8FBFF34F8F019B002BFCD002B0704727
:105000001000002008480068006880F308884FF00E
:10501000000080F3148862B661B6BFF34F8FBFF310
:105020006F8F00DF00BF000008ED00E0DFF80C002C
:10503000016841F4700101607047000088ED00E0F4
:105040004FF0807340F8043C21F0010140F8081C47
:10505000054B40F80C3C40F8202C6FF0020340F860
:10506000243C4438704700BFC54F000800000000D2
:10507000074B19680868B0E8F04F80F30988BFF360
:105080006F8F4FF0000080F311887047AFF30080FE
:105090005C0000204FF0500383F31188BFF36F8F43
:1050A000BFF34F8F0A4A136801331360012B0DD1F0
:1050B000084B1B6813F0FF0F08D04FF0500383F329
:1050C0001188BFF36F8FBFF34F8FFEE7704700BFAC
:1050D0001000002004ED00E0094B1B6843B94FF0BD
:1050E000500383F31188BFF36F8FBFF34F8FFEE739
:1050F000013B034A13600BB983F31188704700BF6B
:10510000100000200000000000000000000000006F
:10511000EFF30980BFF36F8F154B1A681EF0100F65
:1051200008BF20ED108A20E9F04F10602DE909003A
:105130004FF0500080F31188BFF34F8FBFF36F8F94
:10514000FFF79AF94FF0000080F3118809BC196845
:105150000868B0E8F04F1EF0100F08BFB0EC108ADE
:1051600080F30988BFF36F8F704700BFAFF30080F3
:105170005C00002008B54FF0500383F31188BFF3A3
:105180006F8FBFF34F8FFFF741F818B14FF0805288
:10519000024B1A60002383F3118808BD04ED00E080
:1051A000084A0023136008490B60084B1B68084934
:1051B000A1FB03139B09013B06490B600723136006
:1051C000704700BF10E000E018E000E00C00002095
:1051D000D34D621014E000E03A4B1A683A4B9A4201
:1051E00008D14FF0500383F31188BFF36F8FBFF3E3
:1051F0004F8FFEE7334B1A68344B9A4208D14FF079
:10520000500383F31188BFF36F8FBFF34F8FFEE717
:1052100010B582B02E4B1A78D2B20192FF221A70CA
:105220001B78DBB28DF803309DF8033003F0500398
:10523000284A13700722284B1A6009E0264A13688F
:10524000013B13609DF803305B00DBB28DF8033047
:105250009DF8033013F0800FF0D11F4B1B68032B18
:1052600008D04FF0500383F31188BFF36F8FBFF363
:105270004F8FFEE71B0203F4E063174A1360019BA4
:10528000DBB2134A1370154B1A6842F470021A60AD
:105290001A6842F070421A60FFF782FF0024104B38
:1052A0001C60FFF7C3FE0F4A136843F040431360CE
:1052B000FFF7A8FEFFF7E0F8FFF784FE204602B0F4
:1052C00010BD00BF00ED00E071C20F4170C20F4180
:1052D00000E400E0101900201419002020ED00E087
:1052E0001000002034EF00E0EFF305830F2B0FD9FF
:1052F000104A9B5CDBB2104A1278934208D24FF0FE
:10530000500383F31188BFF36F8FBFF34F8FFEE716
:105310000A4B1B6803F4E063094A1268934208D9F8
:105320004FF0500383F31188BFF36F8FBFF34F8F9C
:10533000FEE77047F0E300E0101900200CED00E0FC
:105340001419002000B589B0002103910491059142
:105350000323ADF80830ADF80A300DF107030693CA
:105360000123079302A800F081F8002804DB9DF8D0
:10537000070009B05DF804FBFF20FAE7F0B58BB039
:1053800007460E4615461C4601AB002101910291CD
:105390008DF80C100591069107910422ADF81020AC
:1053A0000122ADF8122008930923099304A800F004
:1053B0005DF8002814DB9DF8040090B99DF80530D5
:1053C0003B70BDF8063033809DF808302B70BDF877
:1053D00009302380BDF80B20109B1A80002000E0CC
:1053E000FF200BB0F0BD30B591B004460D46202231
:1053F000002102A800F035FA8DF808401F2C1FD8B4
:10540000224629460DF1090000F020FA00210B91F7
:105410000823ADF828300923ADF82A3002AB0C93ED
:1054200020230D930DF107030E9301230F930AA878
:1054300000F01CF8002805DB9DF8070011B030BD16
:105440001F22DEE7FF20F9E708B508B1064AD06160
:1054500000F00EF8044B1B680BB100209847024B7C
:105460009B6803B1984708BD1819002000207047B9
:1054700070478B1C802B01DD4220704710B5A8B00F
:1054800013460C468DF804008DF805100A4619469F
:105490000DF1060000F0DAF90234E4B200212391A4
:1054A0003F23ADF888300C23ADF88A3001AB24934C
:1054B00025940DF1870326930123279322A8FFF754
:1054C000D5FF002803DB9DF8870028B010BDFF2022
:1054D000FBE700B589B08DF804008DF805100021B8
:1054E00003913F23ADF808300F23ADF80A3001AB2C
:1054F0000493022305930DF10303069301230793FD
:1055000002A8FFF7B3FF002804DB9DF8030009B0F1
:105510005DF804FBFF20FAE700B589B00021039194
:10552000049105913F23ADF8083040F20113ADF826
:105530000A300DF1070306930123079302A8FFF732
:1055400095FF002804DB9DF8070009B05DF804FB17
:10555000FF20FAE710B58AB01C468DF80C008DF8D4
:105560000D108DF80E2001AB00210191CDF8071030
:1055700005913F22ADF810208A22ADF8122003AA2F
:1055800006920322079208930723099304A8FFF7C2
:105590006DFF00280EDB9DF8040060B9BDF80530F2
:1055A0002380BDF807200C9B1A80BDF809200D9BB5
:1055B0001A8000E0FF200AB010BD70B58AB00E4618
:1055C00015461C468DF80C0001AB00210191CDF869
:1055D000071005913F22ADF810208A22ADF8122065
:1055E00003AA06920122079208930723099304A8AD
:1055F000FFF73CFF00280CDB9DF8040050B9BDF814
:1056000005303380BDF807302B80BDF8093023808A
:1056100000E0FF200AB070BD70B592B09DF85C60EC
:105620009DF8644035190E35282D02D9422012B05C
:1056300070BD8DF80400ADF80510ADF807208DF8A9
:1056400009309DF858308DF80A308DF80B6001ADA7
:105650003246189903A800F0F9F806F1080312AAD7
:1056600052FA83F303F8444C0936F6B222461A99EB
:10567000A81900F0EBF83444E4B212AB2344BDF8AF
:105680006C2023F8442CA31C12AA52FA83F3BDF811
:10569000702023F8442C0434E4B200210D913F2300
:1056A000ADF830308323ADF832300E950F940DF104
:1056B0002F031093012311930CA8FFF7D7FE0028A6
:1056C00002DB9DF82F00B2E7FF20B0E71F2801D9C9
:1056D0004220704730B591B0044610AD05F83C0D3E
:1056E00002460DF1050000F0B1F8601CC0B20021C7
:1056F0000B913F23ADF828308E23ADF82A300C955E
:105700000D900DF127030E9301230F930AA8FFF7C5
:10571000ADFE002803DB9DF8270011B030BDFF204F
:10572000FBE700B589B08DF80400002103913F2309
:10573000ADF808308F23ADF80A3001AB0493012394
:1057400005930DF103020692079302A8FFF78EFE60
:10575000002804DB9DF8030009B05DF804FBFF207E
:10576000FAE730B585B005460C4602AB00930DF163
:105770000A030DF10E0203A90DF10F00FFF7FEFD64
:10578000C0B298B9BDF80C301A0A2A701B029AB23E
:10579000BDF808301B091B0103F0F00313431BB2D3
:1057A000BDF8082002F00F021343238005B030BD7E
:1057B000DFF834D0002103E00C4B5B584350043138
:1057C0000B480C4B42189A42F6D30B4A02E00023D6
:1057D00042F8043B094B9A42F9D3FDF7FFFE00F073
:1057E00011F8FAF7EFFEFEE70080012030590008BB
:1057F000000000201800002018000020901F00204A
:10580000FEE7000070B50D4E0D4CA41BA410002542
:10581000A54209D10B4E0C4C00F02CF8A41BA4108F
:105820000025A54205D170BD56F8253098470135B1
:10583000EEE756F8253098470135F2E72059000881
:1058400020590008205900082459000810B5431EAB
:105850000A44914200D110BD11F8014B03F8014FE9
:10586000F7E702440346934200D1704703F8011B57
:10587000F9E70000F8B500BFF8BC08BC9E467047C9
:10588000F8B500BFF8BC08BC9E4670470000000099
:10589000123400E1800300000303AAFE02010600A7
:1058A0007777772E73742E636F6D00006465666181
:1058B000756C745461736B00000000000000000000
:1058C00001020304060708090000000001020304A6
:1058D000A0860100400D0300801A060000350C0070
:1058E00040420F0080841E0000093D0000127A0033
:1058F0000024F40000366E010048E801006CDC0270
:1059000049444C4500000000546D725100000000F5
:08591000546D72205376630010
:0859180014A9FF7F010000004B
:08592000B501000800000000C1
:085928009101000800000000DD
:1059300000440040010000001000000000093D008C
:08594000AAAAAAAA00000000B7
:04000005080057B1E7
:00000001FF
